{"abi":[{"type":"constructor","inputs":[],"stateMutability":"nonpayable"},{"type":"function","name":"approve","inputs":[{"name":"to","type":"address","internalType":"address"},{"name":"tokenId","type":"uint256","internalType":"uint256"}],"outputs":[],"stateMutability":"nonpayable"},{"type":"function","name":"balanceOf","inputs":[{"name":"owner","type":"address","internalType":"address"}],"outputs":[{"name":"","type":"uint256","internalType":"uint256"}],"stateMutability":"view"},{"type":"function","name":"checkIsPreset","inputs":[{"name":"preset","type":"tuple","internalType":"struct PaperProtocol.Preset","components":[{"name":"token","type":"address","internalType":"address"},{"name":"amount","type":"uint256","internalType":"uint256"},{"name":"priceTarget","type":"uint256","internalType":"uint256"}]}],"outputs":[{"name":"","type":"bool","internalType":"bool"}],"stateMutability":"pure"},{"type":"function","name":"contractURI","inputs":[],"outputs":[{"name":"","type":"string","internalType":"string"}],"stateMutability":"pure"},{"type":"function","name":"deposit","inputs":[{"name":"token","type":"address","internalType":"address"},{"name":"amount","type":"uint256","internalType":"uint256"},{"name":"priceTarget","type":"uint256","internalType":"uint256"}],"outputs":[],"stateMutability":"payable"},{"type":"function","name":"deposits","inputs":[{"name":"","type":"uint256","internalType":"uint256"}],"outputs":[{"name":"token","type":"address","internalType":"address"},{"name":"amount","type":"uint256","internalType":"uint256"},{"name":"priceTarget","type":"uint256","internalType":"uint256"},{"name":"timestamp","type":"uint256","internalType":"uint256"},{"name":"isPreset","type":"bool","internalType":"bool"}],"stateMutability":"view"},{"type":"function","name":"getApproved","inputs":[{"name":"tokenId","type":"uint256","internalType":"uint256"}],"outputs":[{"name":"","type":"address","internalType":"address"}],"stateMutability":"view"},{"type":"function","name":"getPreset","inputs":[{"name":"token","type":"address","internalType":"address"},{"name":"amount","type":"uint256","internalType":"uint256"},{"name":"priceTarget","type":"uint256","internalType":"uint256"}],"outputs":[{"name":"","type":"tuple","internalType":"struct PaperProtocol.Preset","components":[{"name":"token","type":"address","internalType":"address"},{"name":"amount","type":"uint256","internalType":"uint256"},{"name":"priceTarget","type":"uint256","internalType":"uint256"}]}],"stateMutability":"view"},{"type":"function","name":"getPresetId","inputs":[{"name":"token","type":"address","internalType":"address"},{"name":"amount","type":"uint256","internalType":"uint256"},{"name":"priceTarget","type":"uint256","internalType":"uint256"}],"outputs":[{"name":"","type":"bytes32","internalType":"bytes32"}],"stateMutability":"pure"},{"type":"function","name":"isApprovedForAll","inputs":[{"name":"owner","type":"address","internalType":"address"},{"name":"operator","type":"address","internalType":"address"}],"outputs":[{"name":"","type":"bool","internalType":"bool"}],"stateMutability":"view"},{"type":"function","name":"isWithdrawn","inputs":[{"name":"tokenId","type":"uint256","internalType":"uint256"}],"outputs":[{"name":"","type":"bool","internalType":"bool"}],"stateMutability":"view"},{"type":"function","name":"name","inputs":[],"outputs":[{"name":"","type":"string","internalType":"string"}],"stateMutability":"view"},{"type":"function","name":"nextTokenId","inputs":[],"outputs":[{"name":"","type":"uint256","internalType":"uint256"}],"stateMutability":"view"},{"type":"function","name":"oracleAdapter","inputs":[],"outputs":[{"name":"","type":"address","internalType":"contract OracleAdapter"}],"stateMutability":"view"},{"type":"function","name":"owner","inputs":[],"outputs":[{"name":"","type":"address","internalType":"address"}],"stateMutability":"view"},{"type":"function","name":"ownerOf","inputs":[{"name":"tokenId","type":"uint256","internalType":"uint256"}],"outputs":[{"name":"","type":"address","internalType":"address"}],"stateMutability":"view"},{"type":"function","name":"presets","inputs":[{"name":"presetId","type":"bytes32","internalType":"bytes32"}],"outputs":[{"name":"token","type":"address","internalType":"address"},{"name":"amount","type":"uint256","internalType":"uint256"},{"name":"priceTarget","type":"uint256","internalType":"uint256"}],"stateMutability":"view"},{"type":"function","name":"removePresets","inputs":[{"name":"presetIds","type":"bytes32[]","internalType":"bytes32[]"}],"outputs":[],"stateMutability":"nonpayable"},{"type":"function","name":"renounceOwnership","inputs":[],"outputs":[],"stateMutability":"nonpayable"},{"type":"function","name":"safeTransferFrom","inputs":[{"name":"from","type":"address","internalType":"address"},{"name":"to","type":"address","internalType":"address"},{"name":"tokenId","type":"uint256","internalType":"uint256"}],"outputs":[],"stateMutability":"nonpayable"},{"type":"function","name":"safeTransferFrom","inputs":[{"name":"from","type":"address","internalType":"address"},{"name":"to","type":"address","internalType":"address"},{"name":"tokenId","type":"uint256","internalType":"uint256"},{"name":"data","type":"bytes","internalType":"bytes"}],"outputs":[],"stateMutability":"nonpayable"},{"type":"function","name":"setApprovalForAll","inputs":[{"name":"operator","type":"address","internalType":"address"},{"name":"approved","type":"bool","internalType":"bool"}],"outputs":[],"stateMutability":"nonpayable"},{"type":"function","name":"setOracleAdapter","inputs":[{"name":"_oracleAdapter","type":"address","internalType":"address"}],"outputs":[],"stateMutability":"nonpayable"},{"type":"function","name":"setPresets","inputs":[{"name":"presets_","type":"tuple[]","internalType":"struct PaperProtocol.Preset[]","components":[{"name":"token","type":"address","internalType":"address"},{"name":"amount","type":"uint256","internalType":"uint256"},{"name":"priceTarget","type":"uint256","internalType":"uint256"}]}],"outputs":[],"stateMutability":"nonpayable"},{"type":"function","name":"supportsInterface","inputs":[{"name":"interfaceId","type":"bytes4","internalType":"bytes4"}],"outputs":[{"name":"","type":"bool","internalType":"bool"}],"stateMutability":"view"},{"type":"function","name":"symbol","inputs":[],"outputs":[{"name":"","type":"string","internalType":"string"}],"stateMutability":"view"},{"type":"function","name":"tokenURI","inputs":[{"name":"tokenId","type":"uint256","internalType":"uint256"}],"outputs":[{"name":"","type":"string","internalType":"string"}],"stateMutability":"view"},{"type":"function","name":"transferFrom","inputs":[{"name":"from","type":"address","internalType":"address"},{"name":"to","type":"address","internalType":"address"},{"name":"tokenId","type":"uint256","internalType":"uint256"}],"outputs":[],"stateMutability":"nonpayable"},{"type":"function","name":"transferOwnership","inputs":[{"name":"newOwner","type":"address","internalType":"address"}],"outputs":[],"stateMutability":"nonpayable"},{"type":"function","name":"withdraw","inputs":[{"name":"tokenId","type":"uint256","internalType":"uint256"}],"outputs":[],"stateMutability":"nonpayable"},{"type":"event","name":"Approval","inputs":[{"name":"owner","type":"address","indexed":true,"internalType":"address"},{"name":"approved","type":"address","indexed":true,"internalType":"address"},{"name":"tokenId","type":"uint256","indexed":true,"internalType":"uint256"}],"anonymous":false},{"type":"event","name":"ApprovalForAll","inputs":[{"name":"owner","type":"address","indexed":true,"internalType":"address"},{"name":"operator","type":"address","indexed":true,"internalType":"address"},{"name":"approved","type":"bool","indexed":false,"internalType":"bool"}],"anonymous":false},{"type":"event","name":"Deposited","inputs":[{"name":"tokenId","type":"uint256","indexed":true,"internalType":"uint256"},{"name":"token","type":"address","indexed":true,"internalType":"address"},{"name":"amount","type":"uint256","indexed":false,"internalType":"uint256"},{"name":"priceTarget","type":"uint256","indexed":false,"internalType":"uint256"}],"anonymous":false},{"type":"event","name":"OracleAdapterSet","inputs":[{"name":"oracleAdapter","type":"address","indexed":true,"internalType":"address"}],"anonymous":false},{"type":"event","name":"OwnershipTransferred","inputs":[{"name":"previousOwner","type":"address","indexed":true,"internalType":"address"},{"name":"newOwner","type":"address","indexed":true,"internalType":"address"}],"anonymous":false},{"type":"event","name":"PresetRemoved","inputs":[{"name":"presetId","type":"bytes32","indexed":true,"internalType":"bytes32"}],"anonymous":false},{"type":"event","name":"PresetSet","inputs":[{"name":"token","type":"address","indexed":true,"internalType":"address"},{"name":"amount","type":"uint256","indexed":true,"internalType":"uint256"},{"name":"priceTarget","type":"uint256","indexed":true,"internalType":"uint256"}],"anonymous":false},{"type":"event","name":"Transfer","inputs":[{"name":"from","type":"address","indexed":true,"internalType":"address"},{"name":"to","type":"address","indexed":true,"internalType":"address"},{"name":"tokenId","type":"uint256","indexed":true,"internalType":"uint256"}],"anonymous":false},{"type":"event","name":"Withdrawn","inputs":[{"name":"tokenId","type":"uint256","indexed":true,"internalType":"uint256"},{"name":"token","type":"address","indexed":true,"internalType":"address"},{"name":"amount","type":"uint256","indexed":false,"internalType":"uint256"}],"anonymous":false},{"type":"error","name":"CallerIsNotNFTOwner","inputs":[{"name":"caller","type":"address","internalType":"address"},{"name":"owner","type":"address","internalType":"address"}]},{"type":"error","name":"ERC721IncorrectOwner","inputs":[{"name":"sender","type":"address","internalType":"address"},{"name":"tokenId","type":"uint256","internalType":"uint256"},{"name":"owner","type":"address","internalType":"address"}]},{"type":"error","name":"ERC721InsufficientApproval","inputs":[{"name":"operator","type":"address","internalType":"address"},{"name":"tokenId","type":"uint256","internalType":"uint256"}]},{"type":"error","name":"ERC721InvalidApprover","inputs":[{"name":"approver","type":"address","internalType":"address"}]},{"type":"error","name":"ERC721InvalidOperator","inputs":[{"name":"operator","type":"address","internalType":"address"}]},{"type":"error","name":"ERC721InvalidOwner","inputs":[{"name":"owner","type":"address","internalType":"address"}]},{"type":"error","name":"ERC721InvalidReceiver","inputs":[{"name":"receiver","type":"address","internalType":"address"}]},{"type":"error","name":"ERC721InvalidSender","inputs":[{"name":"sender","type":"address","internalType":"address"}]},{"type":"error","name":"ERC721NonexistentToken","inputs":[{"name":"tokenId","type":"uint256","internalType":"uint256"}]},{"type":"error","name":"EtherAmountMustBeZeroForTokenDeposit","inputs":[{"name":"token","type":"address","internalType":"address"},{"name":"etherAmount","type":"uint256","internalType":"uint256"}]},{"type":"error","name":"EtherTransferFailed","inputs":[{"name":"tokenId","type":"uint256","internalType":"uint256"}]},{"type":"error","name":"OwnableInvalidOwner","inputs":[{"name":"owner","type":"address","internalType":"address"}]},{"type":"error","name":"OwnableUnauthorizedAccount","inputs":[{"name":"account","type":"address","internalType":"address"}]},{"type":"error","name":"PriceTargetNotReached","inputs":[{"name":"tokenId","type":"uint256","internalType":"uint256"},{"name":"targetPrice","type":"uint256","internalType":"uint256"},{"name":"currentPrice","type":"uint256","internalType":"uint256"}]},{"type":"error","name":"SafeERC20FailedOperation","inputs":[{"name":"token","type":"address","internalType":"address"}]},{"type":"error","name":"TokenAlreadyWithdrawn","inputs":[{"name":"tokenId","type":"uint256","internalType":"uint256"}]},{"type":"error","name":"TokenAmountCannotBeZero","inputs":[{"name":"token","type":"address","internalType":"address"}]}],"bytecode":{"object":"0x60806040526001600b5534801562000015575f80fd5b50336040518060400160405280600e81526020017f50617065722050726f746f636f6c0000000000000000000000000000000000008152506040518060400160405280600281526020017f5050000000000000000000000000000000000000000000000000000000000000815250815f90816200009391906200045a565b508060019081620000a591906200045a565b5050505f73ffffffffffffffffffffffffffffffffffffffff168173ffffffffffffffffffffffffffffffffffffffff16036200011b575f6040517f1e4fbdf700000000000000000000000000000000000000000000000000000000815260040162000112919062000581565b60405180910390fd5b6200012c816200013360201b60201c565b506200059c565b5f60065f9054906101000a900473ffffffffffffffffffffffffffffffffffffffff1690508160065f6101000a81548173ffffffffffffffffffffffffffffffffffffffff021916908373ffffffffffffffffffffffffffffffffffffffff1602179055508173ffffffffffffffffffffffffffffffffffffffff168173ffffffffffffffffffffffffffffffffffffffff167f8be0079c531659141344cd1fd0a4f28419497f9722a3daafe3b4186f6b6457e060405160405180910390a35050565b5f81519050919050565b7f4e487b71000000000000000000000000000000000000000000000000000000005f52604160045260245ffd5b7f4e487b71000000000000000000000000000000000000000000000000000000005f52602260045260245ffd5b5f60028204905060018216806200027257607f821691505b6020821081036200028857620002876200022d565b5b50919050565b5f819050815f5260205f209050919050565b5f6020601f8301049050919050565b5f82821b905092915050565b5f60088302620002ec7fffffffffffffffffffffffffffffffffffffffffffffffffffffffffffffffff82620002af565b620002f88683620002af565b95508019841693508086168417925050509392505050565b5f819050919050565b5f819050919050565b5f620003426200033c620003368462000310565b62000319565b62000310565b9050919050565b5f819050919050565b6200035d8362000322565b620003756200036c8262000349565b848454620002bb565b825550505050565b5f90565b6200038b6200037d565b6200039881848462000352565b505050565b5b81811015620003bf57620003b35f8262000381565b6001810190506200039e565b5050565b601f8211156200040e57620003d8816200028e565b620003e384620002a0565b81016020851015620003f3578190505b6200040b6200040285620002a0565b8301826200039d565b50505b505050565b5f82821c905092915050565b5f620004305f198460080262000413565b1980831691505092915050565b5f6200044a83836200041f565b9150826002028217905092915050565b6200046582620001f6565b67ffffffffffffffff81111562000481576200048062000200565b5b6200048d82546200025a565b6200049a828285620003c3565b5f60209050601f831160018114620004d0575f8415620004bb578287015190505b620004c785826200043d565b86555062000536565b601f198416620004e0866200028e565b5f5b828110156200050957848901518255600182019150602085019450602081019050620004e2565b8683101562000529578489015162000525601f8916826200041f565b8355505b6001600288020188555050505b505050505050565b5f73ffffffffffffffffffffffffffffffffffffffff82169050919050565b5f62000569826200053e565b9050919050565b6200057b816200055d565b82525050565b5f602082019050620005965f83018462000570565b92915050565b613b5180620005aa5f395ff3fe6080604052600436106101cc575f3560e01c806370a08231116100f6578063b02c43d011610094578063e8a3d48511610063578063e8a3d485146106ae578063e985e9c5146106d8578063edb6d07514610714578063f2fde38b1461073c576101cc565b8063b02c43d0146105ce578063b88d4fde1461060e578063c30184b714610636578063c87b56dd14610672576101cc565b80638da5cb5b116100d05780638da5cb5b1461051657806395d89b41146105405780639b03e8a11461056a578063a22cb465146105a6576101cc565b806370a082311461049a578063715018a6146104d657806375794a3c146104ec576101cc565b80630efe6a8b1161016e5780633d9f31631161013d5780633d9f3163146103e457806342842e0e1461040e578063438b2a0d146104365780636352211e1461045e576101cc565b80630efe6a8b1461033c57806323b872dd146103585780632e1a7d4d14610380578063366524e0146103a8576101cc565b8063081812fc116101aa578063081812fc14610274578063095ea7b3146102b05780630a93172c146102d85780630ef174f214610314576101cc565b806301ffc9a7146101d057806302b9e3ed1461020c57806306fdde031461024a575b5f80fd5b3480156101db575f80fd5b506101f660048036038101906101f191906129c5565b610764565b6040516102039190612a0a565b60405180910390f35b348015610217575f80fd5b50610232600480360381019061022d9190612a56565b610845565b60405161024193929190612ad8565b60405180910390f35b348015610255575f80fd5b5061025e61088a565b60405161026b9190612b97565b60405180910390f35b34801561027f575f80fd5b5061029a60048036038101906102959190612be1565b610919565b6040516102a79190612c0c565b60405180910390f35b3480156102bb575f80fd5b506102d660048036038101906102d19190612c4f565b610934565b005b3480156102e3575f80fd5b506102fe60048036038101906102f99190612c8d565b61094a565b60405161030b9190612cec565b60405180910390f35b34801561031f575f80fd5b5061033a60048036038101906103359190612eaa565b61097f565b005b61035660048036038101906103519190612c8d565b610b2b565b005b348015610363575f80fd5b5061037e60048036038101906103799190612ef1565b610d67565b005b34801561038b575f80fd5b506103a660048036038101906103a19190612be1565b610e66565b005b3480156103b3575f80fd5b506103ce60048036038101906103c99190612c8d565b611281565b6040516103db9190612f9f565b60405180910390f35b3480156103ef575f80fd5b506103f8611320565b6040516104059190613013565b60405180910390f35b348015610419575f80fd5b50610434600480360381019061042f9190612ef1565b611345565b005b348015610441575f80fd5b5061045c600480360381019061045791906130ec565b611364565b005b348015610469575f80fd5b50610484600480360381019061047f9190612be1565b611430565b6040516104919190612c0c565b60405180910390f35b3480156104a5575f80fd5b506104c060048036038101906104bb9190613133565b611441565b6040516104cd919061315e565b60405180910390f35b3480156104e1575f80fd5b506104ea6114f7565b005b3480156104f7575f80fd5b5061050061150a565b60405161050d919061315e565b60405180910390f35b348015610521575f80fd5b5061052a611510565b6040516105379190612c0c565b60405180910390f35b34801561054b575f80fd5b50610554611538565b6040516105619190612b97565b60405180910390f35b348015610575575f80fd5b50610590600480360381019061058b9190613177565b6115c8565b60405161059d9190612a0a565b60405180910390f35b3480156105b1575f80fd5b506105cc60048036038101906105c791906131cc565b6115e8565b005b3480156105d9575f80fd5b506105f460048036038101906105ef9190612be1565b6115fe565b60405161060595949392919061320a565b60405180910390f35b348015610619575f80fd5b50610634600480360381019061062f919061330b565b61165b565b005b348015610641575f80fd5b5061065c60048036038101906106579190612be1565b611680565b6040516106699190612a0a565b60405180910390f35b34801561067d575f80fd5b5061069860048036038101906106939190612be1565b61169d565b6040516106a59190612b97565b60405180910390f35b3480156106b9575f80fd5b506106c26116af565b6040516106cf9190612b97565b60405180910390f35b3480156106e3575f80fd5b506106fe60048036038101906106f9919061338b565b6116be565b60405161070b9190612a0a565b60405180910390f35b34801561071f575f80fd5b5061073a60048036038101906107359190613133565b61174c565b005b348015610747575f80fd5b50610762600480360381019061075d9190613133565b6117da565b005b5f7f80ac58cd000000000000000000000000000000000000000000000000000000007bffffffffffffffffffffffffffffffffffffffffffffffffffffffff1916827bffffffffffffffffffffffffffffffffffffffffffffffffffffffff1916148061082e57507f5b5e139f000000000000000000000000000000000000000000000000000000007bffffffffffffffffffffffffffffffffffffffffffffffffffffffff1916827bffffffffffffffffffffffffffffffffffffffffffffffffffffffff1916145b8061083e575061083d8261185e565b5b9050919050565b6007602052805f5260405f205f91509050805f015f9054906101000a900473ffffffffffffffffffffffffffffffffffffffff16908060010154908060020154905083565b60605f8054610898906133f6565b80601f01602080910402602001604051908101604052809291908181526020018280546108c4906133f6565b801561090f5780601f106108e65761010080835404028352916020019161090f565b820191905f5260205f20905b8154815290600101906020018083116108f257829003601f168201915b5050505050905090565b5f610923826118c7565b5061092d8261194d565b9050919050565b6109468282610941611986565b61198d565b5050565b5f83838360405160200161096093929190612ad8565b6040516020818303038152906040528051906020012090509392505050565b61098761199f565b5f5b8151811015610b27578181815181106109a5576109a4613426565b5b602002602001015160075f610a148585815181106109c6576109c5613426565b5b60200260200101515f01518686815181106109e4576109e3613426565b5b602002602001015160200151878781518110610a0357610a02613426565b5b60200260200101516040015161094a565b81526020019081526020015f205f820151815f015f6101000a81548173ffffffffffffffffffffffffffffffffffffffff021916908373ffffffffffffffffffffffffffffffffffffffff1602179055506020820151816001015560408201518160020155905050818181518110610a8f57610a8e613426565b5b602002602001015160400151828281518110610aae57610aad613426565b5b602002602001015160200151838381518110610acd57610acc613426565b5b60200260200101515f015173ffffffffffffffffffffffffffffffffffffffff167f2babb3386e6cd6508a79a8f55bb72f850d01c1f382521797f0abe4e0870431a260405160405180910390a48080600101915050610989565b5050565b5f610b37848484611281565b90505f610b43826115c8565b90505f73ffffffffffffffffffffffffffffffffffffffff168573ffffffffffffffffffffffffffffffffffffffff1603610b7c573493505b5f8403610bc057846040517fc512cdd5000000000000000000000000000000000000000000000000000000008152600401610bb79190612c0c565b60405180910390fd5b5f73ffffffffffffffffffffffffffffffffffffffff168573ffffffffffffffffffffffffffffffffffffffff1614610c67575f3414610c395784346040517fed7d3f5d000000000000000000000000000000000000000000000000000000008152600401610c30929190613453565b60405180910390fd5b610c663330868873ffffffffffffffffffffffffffffffffffffffff16611a26909392919063ffffffff16565b5b6040518060a001604052808673ffffffffffffffffffffffffffffffffffffffff16815260200185815260200184815260200142815260200182151581525060095f600b5481526020019081526020015f205f820151815f015f6101000a81548173ffffffffffffffffffffffffffffffffffffffff021916908373ffffffffffffffffffffffffffffffffffffffff1602179055506020820151816001015560408201518160020155606082015181600301556080820151816004015f6101000a81548160ff021916908315150217905550905050610d4933600b54611aa8565b600b5f815480929190610d5b906134a7565b91905055505050505050565b5f73ffffffffffffffffffffffffffffffffffffffff168273ffffffffffffffffffffffffffffffffffffffff1603610dd7575f6040517f64a0ae92000000000000000000000000000000000000000000000000000000008152600401610dce9190612c0c565b60405180910390fd5b5f610dea8383610de5611986565b611b9b565b90508373ffffffffffffffffffffffffffffffffffffffff168173ffffffffffffffffffffffffffffffffffffffff1614610e60578382826040517f64283d7b000000000000000000000000000000000000000000000000000000008152600401610e57939291906134ee565b60405180910390fd5b50505050565b60085f8281526020019081526020015f205f9054906101000a900460ff1615610ec657806040517f2801f6c2000000000000000000000000000000000000000000000000000000008152600401610ebd919061315e565b60405180910390fd5b5f610ed0826118c7565b90508073ffffffffffffffffffffffffffffffffffffffff163373ffffffffffffffffffffffffffffffffffffffff1614610f445733816040517f7f5a007a000000000000000000000000000000000000000000000000000000008152600401610f3b929190613523565b60405180910390fd5b600160085f8481526020019081526020015f205f6101000a81548160ff0219169083151502179055505f60095f8481526020019081526020015f206040518060a00160405290815f82015f9054906101000a900473ffffffffffffffffffffffffffffffffffffffff1673ffffffffffffffffffffffffffffffffffffffff1673ffffffffffffffffffffffffffffffffffffffff168152602001600182015481526020016002820154815260200160038201548152602001600482015f9054906101000a900460ff16151515158152505090505f600a5f9054906101000a900473ffffffffffffffffffffffffffffffffffffffff1673ffffffffffffffffffffffffffffffffffffffff166341976e09835f01516040518263ffffffff1660e01b81526004016110769190612c0c565b602060405180830381865afa158015611091573d5f803e3d5ffd5b505050506040513d601f19601f820116820180604052508101906110b5919061355e565b9050816040015181101561110857838260400151826040517f75b180480000000000000000000000000000000000000000000000000000000081526004016110ff93929190613589565b60405180910390fd5b5f73ffffffffffffffffffffffffffffffffffffffff16825f015173ffffffffffffffffffffffffffffffffffffffff16036111f2575f3373ffffffffffffffffffffffffffffffffffffffff168360200151604051611167906135eb565b5f6040518083038185875af1925050503d805f81146111a1576040519150601f19603f3d011682016040523d82523d5f602084013e6111a6565b606091505b50509050806111ec57846040517f0a44e7080000000000000000000000000000000000000000000000000000000081526004016111e3919061315e565b60405180910390fd5b50611225565b611224338360200151845f015173ffffffffffffffffffffffffffffffffffffffff16611da69092919063ffffffff16565b5b815f015173ffffffffffffffffffffffffffffffffffffffff16847fcf7d23a3cbe4e8b36ff82fd1b05b1b17373dc7804b4ebbd6e2356716ef2023728460200151604051611273919061315e565b60405180910390a350505050565b61128961292b565b60075f61129786868661094a565b81526020019081526020015f206040518060600160405290815f82015f9054906101000a900473ffffffffffffffffffffffffffffffffffffffff1673ffffffffffffffffffffffffffffffffffffffff1673ffffffffffffffffffffffffffffffffffffffff1681526020016001820154815260200160028201548152505090509392505050565b600a5f9054906101000a900473ffffffffffffffffffffffffffffffffffffffff1681565b61135f83838360405180602001604052805f81525061165b565b505050565b61136c61199f565b5f5b815181101561142c5760075f83838151811061138d5761138c613426565b5b602002602001015181526020019081526020015f205f8082015f6101000a81549073ffffffffffffffffffffffffffffffffffffffff0219169055600182015f9055600282015f905550508181815181106113eb576113ea613426565b5b60200260200101517f962d69ae2f0f5cb6c19842fc942d71f15c4dbceff1c39437db6260a4d61ab0fc60405160405180910390a2808060010191505061136e565b5050565b5f61143a826118c7565b9050919050565b5f8073ffffffffffffffffffffffffffffffffffffffff168273ffffffffffffffffffffffffffffffffffffffff16036114b2575f6040517f89c62b640000000000000000000000000000000000000000000000000000000081526004016114a99190612c0c565b60405180910390fd5b60035f8373ffffffffffffffffffffffffffffffffffffffff1673ffffffffffffffffffffffffffffffffffffffff1681526020019081526020015f20549050919050565b6114ff61199f565b6115085f611e25565b565b600b5481565b5f60065f9054906101000a900473ffffffffffffffffffffffffffffffffffffffff16905090565b606060018054611547906133f6565b80601f0160208091040260200160405190810160405280929190818152602001828054611573906133f6565b80156115be5780601f10611595576101008083540402835291602001916115be565b820191905f5260205f20905b8154815290600101906020018083116115a157829003601f168201915b5050505050905090565b5f808260200151141580156115e157505f826040015114155b9050919050565b6115fa6115f3611986565b8383611ee8565b5050565b6009602052805f5260405f205f91509050805f015f9054906101000a900473ffffffffffffffffffffffffffffffffffffffff1690806001015490806002015490806003015490806004015f9054906101000a900460ff16905085565b611666848484610d67565b61167a611671611986565b85858585612051565b50505050565b6008602052805f5260405f205f915054906101000a900460ff1681565b60606116a8826121fd565b9050919050565b60606116b9612243565b905090565b5f60055f8473ffffffffffffffffffffffffffffffffffffffff1673ffffffffffffffffffffffffffffffffffffffff1681526020019081526020015f205f8373ffffffffffffffffffffffffffffffffffffffff1673ffffffffffffffffffffffffffffffffffffffff1681526020019081526020015f205f9054906101000a900460ff16905092915050565b61175461199f565b80600a5f6101000a81548173ffffffffffffffffffffffffffffffffffffffff021916908373ffffffffffffffffffffffffffffffffffffffff1602179055508073ffffffffffffffffffffffffffffffffffffffff167f0216fd2d147b005795495489f9a8546ecb901b7c2837fc3d486b06ff66729bb760405160405180910390a250565b6117e261199f565b5f73ffffffffffffffffffffffffffffffffffffffff168173ffffffffffffffffffffffffffffffffffffffff1603611852575f6040517f1e4fbdf70000000000000000000000000000000000000000000000000000000081526004016118499190612c0c565b60405180910390fd5b61185b81611e25565b50565b5f7f01ffc9a7000000000000000000000000000000000000000000000000000000007bffffffffffffffffffffffffffffffffffffffffffffffffffffffff1916827bffffffffffffffffffffffffffffffffffffffffffffffffffffffff1916149050919050565b5f806118d283612270565b90505f73ffffffffffffffffffffffffffffffffffffffff168173ffffffffffffffffffffffffffffffffffffffff160361194457826040517f7e27328900000000000000000000000000000000000000000000000000000000815260040161193b919061315e565b60405180910390fd5b80915050919050565b5f60045f8381526020019081526020015f205f9054906101000a900473ffffffffffffffffffffffffffffffffffffffff169050919050565b5f33905090565b61199a83838360016122a9565b505050565b6119a7611986565b73ffffffffffffffffffffffffffffffffffffffff166119c5611510565b73ffffffffffffffffffffffffffffffffffffffff1614611a24576119e8611986565b6040517f118cdaa7000000000000000000000000000000000000000000000000000000008152600401611a1b9190612c0c565b60405180910390fd5b565b611aa2848573ffffffffffffffffffffffffffffffffffffffff166323b872dd868686604051602401611a5b939291906135ff565b604051602081830303815290604052915060e01b6020820180517bffffffffffffffffffffffffffffffffffffffffffffffffffffffff8381831617835250505050612468565b50505050565b5f73ffffffffffffffffffffffffffffffffffffffff168273ffffffffffffffffffffffffffffffffffffffff1603611b18575f6040517f64a0ae92000000000000000000000000000000000000000000000000000000008152600401611b0f9190612c0c565b60405180910390fd5b5f611b2483835f611b9b565b90505f73ffffffffffffffffffffffffffffffffffffffff168173ffffffffffffffffffffffffffffffffffffffff1614611b96575f6040517f73c6ac6e000000000000000000000000000000000000000000000000000000008152600401611b8d9190612c0c565b60405180910390fd5b505050565b5f80611ba684612270565b90505f73ffffffffffffffffffffffffffffffffffffffff168373ffffffffffffffffffffffffffffffffffffffff1614611be757611be6818486612503565b5b5f73ffffffffffffffffffffffffffffffffffffffff168173ffffffffffffffffffffffffffffffffffffffff1614611c7257611c265f855f806122a9565b600160035f8373ffffffffffffffffffffffffffffffffffffffff1673ffffffffffffffffffffffffffffffffffffffff1681526020019081526020015f205f82825403925050819055505b5f73ffffffffffffffffffffffffffffffffffffffff168573ffffffffffffffffffffffffffffffffffffffff1614611cf157600160035f8773ffffffffffffffffffffffffffffffffffffffff1673ffffffffffffffffffffffffffffffffffffffff1681526020019081526020015f205f82825401925050819055505b8460025f8681526020019081526020015f205f6101000a81548173ffffffffffffffffffffffffffffffffffffffff021916908373ffffffffffffffffffffffffffffffffffffffff160217905550838573ffffffffffffffffffffffffffffffffffffffff168273ffffffffffffffffffffffffffffffffffffffff167fddf252ad1be2c89b69c2b068fc378daa952ba7f163c4a11628f55a4df523b3ef60405160405180910390a4809150509392505050565b611e20838473ffffffffffffffffffffffffffffffffffffffff1663a9059cbb8585604051602401611dd9929190613453565b604051602081830303815290604052915060e01b6020820180517bffffffffffffffffffffffffffffffffffffffffffffffffffffffff8381831617835250505050612468565b505050565b5f60065f9054906101000a900473ffffffffffffffffffffffffffffffffffffffff1690508160065f6101000a81548173ffffffffffffffffffffffffffffffffffffffff021916908373ffffffffffffffffffffffffffffffffffffffff1602179055508173ffffffffffffffffffffffffffffffffffffffff168173ffffffffffffffffffffffffffffffffffffffff167f8be0079c531659141344cd1fd0a4f28419497f9722a3daafe3b4186f6b6457e060405160405180910390a35050565b5f73ffffffffffffffffffffffffffffffffffffffff168273ffffffffffffffffffffffffffffffffffffffff1603611f5857816040517f5b08ba18000000000000000000000000000000000000000000000000000000008152600401611f4f9190612c0c565b60405180910390fd5b8060055f8573ffffffffffffffffffffffffffffffffffffffff1673ffffffffffffffffffffffffffffffffffffffff1681526020019081526020015f205f8473ffffffffffffffffffffffffffffffffffffffff1673ffffffffffffffffffffffffffffffffffffffff1681526020019081526020015f205f6101000a81548160ff0219169083151502179055508173ffffffffffffffffffffffffffffffffffffffff168373ffffffffffffffffffffffffffffffffffffffff167f17307eab39ab6107e8899845ad3d59bd9653f200f220920489ca2b5937696c31836040516120449190612a0a565b60405180910390a3505050565b5f8373ffffffffffffffffffffffffffffffffffffffff163b11156121f6578273ffffffffffffffffffffffffffffffffffffffff1663150b7a02868685856040518563ffffffff1660e01b81526004016120af9493929190613686565b6020604051808303815f875af19250505080156120ea57506040513d601f19601f820116820180604052508101906120e791906136e4565b60015b61216b573d805f8114612118576040519150601f19603f3d011682016040523d82523d5f602084013e61211d565b606091505b505f81510361216357836040517f64a0ae9200000000000000000000000000000000000000000000000000000000815260040161215a9190612c0c565b60405180910390fd5b805181602001fd5b63150b7a0260e01b7bffffffffffffffffffffffffffffffffffffffffffffffffffffffff1916817bffffffffffffffffffffffffffffffffffffffffffffffffffffffff1916146121f457836040517f64a0ae920000000000000000000000000000000000000000000000000000000081526004016121eb9190612c0c565b60405180910390fd5b505b5050505050565b60605f61221161220c846125c6565b6125ed565b905061223b816040516020016122279190613827565b60405160208183030381529060405261267e565b915050919050565b606061226b604051602001612257906138a8565b60405160208183030381529060405261267e565b905090565b5f60025f8381526020019081526020015f205f9054906101000a900473ffffffffffffffffffffffffffffffffffffffff169050919050565b80806122e157505f73ffffffffffffffffffffffffffffffffffffffff168273ffffffffffffffffffffffffffffffffffffffff1614155b15612413575f6122f0846118c7565b90505f73ffffffffffffffffffffffffffffffffffffffff168373ffffffffffffffffffffffffffffffffffffffff161415801561235a57508273ffffffffffffffffffffffffffffffffffffffff168173ffffffffffffffffffffffffffffffffffffffff1614155b801561236d575061236b81846116be565b155b156123af57826040517fa9fbf51f0000000000000000000000000000000000000000000000000000000081526004016123a69190612c0c565b60405180910390fd5b811561241157838573ffffffffffffffffffffffffffffffffffffffff168273ffffffffffffffffffffffffffffffffffffffff167f8c5be1e5ebec7d5bd14f71427d1e84f3dd0314c0f7b2291e5b200ac8c7c3b92560405160405180910390a45b505b8360045f8581526020019081526020015f205f6101000a81548173ffffffffffffffffffffffffffffffffffffffff021916908373ffffffffffffffffffffffffffffffffffffffff16021790555050505050565b5f8060205f8451602086015f885af180612487576040513d5f823e3d81fd5b3d92505f519150505f82146124a05760018114156124bb565b5f8473ffffffffffffffffffffffffffffffffffffffff163b145b156124fd57836040517f5274afe70000000000000000000000000000000000000000000000000000000081526004016124f49190612c0c565b60405180910390fd5b50505050565b61250e8383836126af565b6125c1575f73ffffffffffffffffffffffffffffffffffffffff168373ffffffffffffffffffffffffffffffffffffffff160361258257806040517f7e273289000000000000000000000000000000000000000000000000000000008152600401612579919061315e565b60405180910390fd5b81816040517f177e802f0000000000000000000000000000000000000000000000000000000081526004016125b8929190613453565b60405180910390fd5b505050565b60606040516020016125d790613952565b6040516020818303038152906040529050919050565b60605f6040518060400160405280601a81526020017f646174613a696d6167652f7376672b786d6c3b6261736536342c00000000000081525090505f6126518460405160200161263d9190613966565b60405160208183030381529060405261276f565b9050818160405160200161266692919061397c565b60405160208183030381529060405292505050919050565b60606126898261276f565b60405160200161269991906139e9565b6040516020818303038152906040529050919050565b5f8073ffffffffffffffffffffffffffffffffffffffff168373ffffffffffffffffffffffffffffffffffffffff161415801561276657508273ffffffffffffffffffffffffffffffffffffffff168473ffffffffffffffffffffffffffffffffffffffff161480612727575061272684846116be565b5b8061276557508273ffffffffffffffffffffffffffffffffffffffff1661274d8361194d565b73ffffffffffffffffffffffffffffffffffffffff16145b5b90509392505050565b606061279582604051806060016040528060408152602001613adc60409139600161279c565b9050919050565b60605f8451036127bc5760405180602001604052805f8152509050612924565b5f826127ed5760036002865160046127d49190613a0a565b6127de9190613a4b565b6127e89190613aab565b612814565b6003600286516127fd9190613a4b565b6128079190613aab565b60046128139190613a0a565b5b90505f8167ffffffffffffffff81111561283157612830612d09565b5b6040519080825280601f01601f1916602001820160405280156128635781602001600182028036833780820191505090505b509050600185016020820187885189016020810180515f82525b828410156128d8576003840193508351603f8160121c168701518653600186019550603f81600c1c168701518653600186019550603f8160061c168701518653600186019550603f811687015186536001860195505061287d565b80825289156129185760038c5106600181146128fb576002811461290e57612916565b603d6001870353603d6002870353612916565b603d60018703535b505b50505050505080925050505b9392505050565b60405180606001604052805f73ffffffffffffffffffffffffffffffffffffffff1681526020015f81526020015f81525090565b5f604051905090565b5f80fd5b5f80fd5b5f7fffffffff0000000000000000000000000000000000000000000000000000000082169050919050565b6129a481612970565b81146129ae575f80fd5b50565b5f813590506129bf8161299b565b92915050565b5f602082840312156129da576129d9612968565b5b5f6129e7848285016129b1565b91505092915050565b5f8115159050919050565b612a04816129f0565b82525050565b5f602082019050612a1d5f8301846129fb565b92915050565b5f819050919050565b612a3581612a23565b8114612a3f575f80fd5b50565b5f81359050612a5081612a2c565b92915050565b5f60208284031215612a6b57612a6a612968565b5b5f612a7884828501612a42565b91505092915050565b5f73ffffffffffffffffffffffffffffffffffffffff82169050919050565b5f612aaa82612a81565b9050919050565b612aba81612aa0565b82525050565b5f819050919050565b612ad281612ac0565b82525050565b5f606082019050612aeb5f830186612ab1565b612af86020830185612ac9565b612b056040830184612ac9565b949350505050565b5f81519050919050565b5f82825260208201905092915050565b5f5b83811015612b44578082015181840152602081019050612b29565b5f8484015250505050565b5f601f19601f8301169050919050565b5f612b6982612b0d565b612b738185612b17565b9350612b83818560208601612b27565b612b8c81612b4f565b840191505092915050565b5f6020820190508181035f830152612baf8184612b5f565b905092915050565b612bc081612ac0565b8114612bca575f80fd5b50565b5f81359050612bdb81612bb7565b92915050565b5f60208284031215612bf657612bf5612968565b5b5f612c0384828501612bcd565b91505092915050565b5f602082019050612c1f5f830184612ab1565b92915050565b612c2e81612aa0565b8114612c38575f80fd5b50565b5f81359050612c4981612c25565b92915050565b5f8060408385031215612c6557612c64612968565b5b5f612c7285828601612c3b565b9250506020612c8385828601612bcd565b9150509250929050565b5f805f60608486031215612ca457612ca3612968565b5b5f612cb186828701612c3b565b9350506020612cc286828701612bcd565b9250506040612cd386828701612bcd565b9150509250925092565b612ce681612a23565b82525050565b5f602082019050612cff5f830184612cdd565b92915050565b5f80fd5b7f4e487b71000000000000000000000000000000000000000000000000000000005f52604160045260245ffd5b612d3f82612b4f565b810181811067ffffffffffffffff82111715612d5e57612d5d612d09565b5b80604052505050565b5f612d7061295f565b9050612d7c8282612d36565b919050565b5f67ffffffffffffffff821115612d9b57612d9a612d09565b5b602082029050602081019050919050565b5f80fd5b5f80fd5b5f60608284031215612dc957612dc8612db0565b5b612dd36060612d67565b90505f612de284828501612c3b565b5f830152506020612df584828501612bcd565b6020830152506040612e0984828501612bcd565b60408301525092915050565b5f612e27612e2284612d81565b612d67565b90508083825260208201905060608402830185811115612e4a57612e49612dac565b5b835b81811015612e735780612e5f8882612db4565b845260208401935050606081019050612e4c565b5050509392505050565b5f82601f830112612e9157612e90612d05565b5b8135612ea1848260208601612e15565b91505092915050565b5f60208284031215612ebf57612ebe612968565b5b5f82013567ffffffffffffffff811115612edc57612edb61296c565b5b612ee884828501612e7d565b91505092915050565b5f805f60608486031215612f0857612f07612968565b5b5f612f1586828701612c3b565b9350506020612f2686828701612c3b565b9250506040612f3786828701612bcd565b9150509250925092565b612f4a81612aa0565b82525050565b612f5981612ac0565b82525050565b606082015f820151612f735f850182612f41565b506020820151612f866020850182612f50565b506040820151612f996040850182612f50565b50505050565b5f606082019050612fb25f830184612f5f565b92915050565b5f819050919050565b5f612fdb612fd6612fd184612a81565b612fb8565b612a81565b9050919050565b5f612fec82612fc1565b9050919050565b5f612ffd82612fe2565b9050919050565b61300d81612ff3565b82525050565b5f6020820190506130265f830184613004565b92915050565b5f67ffffffffffffffff82111561304657613045612d09565b5b602082029050602081019050919050565b5f6130696130648461302c565b612d67565b9050808382526020820190506020840283018581111561308c5761308b612dac565b5b835b818110156130b557806130a18882612a42565b84526020840193505060208101905061308e565b5050509392505050565b5f82601f8301126130d3576130d2612d05565b5b81356130e3848260208601613057565b91505092915050565b5f6020828403121561310157613100612968565b5b5f82013567ffffffffffffffff81111561311e5761311d61296c565b5b61312a848285016130bf565b91505092915050565b5f6020828403121561314857613147612968565b5b5f61315584828501612c3b565b91505092915050565b5f6020820190506131715f830184612ac9565b92915050565b5f6060828403121561318c5761318b612968565b5b5f61319984828501612db4565b91505092915050565b6131ab816129f0565b81146131b5575f80fd5b50565b5f813590506131c6816131a2565b92915050565b5f80604083850312156131e2576131e1612968565b5b5f6131ef85828601612c3b565b9250506020613200858286016131b8565b9150509250929050565b5f60a08201905061321d5f830188612ab1565b61322a6020830187612ac9565b6132376040830186612ac9565b6132446060830185612ac9565b61325160808301846129fb565b9695505050505050565b5f80fd5b5f67ffffffffffffffff82111561327957613278612d09565b5b61328282612b4f565b9050602081019050919050565b828183375f83830152505050565b5f6132af6132aa8461325f565b612d67565b9050828152602081018484840111156132cb576132ca61325b565b5b6132d684828561328f565b509392505050565b5f82601f8301126132f2576132f1612d05565b5b813561330284826020860161329d565b91505092915050565b5f805f806080858703121561332357613322612968565b5b5f61333087828801612c3b565b945050602061334187828801612c3b565b935050604061335287828801612bcd565b925050606085013567ffffffffffffffff8111156133735761337261296c565b5b61337f878288016132de565b91505092959194509250565b5f80604083850312156133a1576133a0612968565b5b5f6133ae85828601612c3b565b92505060206133bf85828601612c3b565b9150509250929050565b7f4e487b71000000000000000000000000000000000000000000000000000000005f52602260045260245ffd5b5f600282049050600182168061340d57607f821691505b6020821081036134205761341f6133c9565b5b50919050565b7f4e487b71000000000000000000000000000000000000000000000000000000005f52603260045260245ffd5b5f6040820190506134665f830185612ab1565b6134736020830184612ac9565b9392505050565b7f4e487b71000000000000000000000000000000000000000000000000000000005f52601160045260245ffd5b5f6134b182612ac0565b91507fffffffffffffffffffffffffffffffffffffffffffffffffffffffffffffffff82036134e3576134e261347a565b5b600182019050919050565b5f6060820190506135015f830186612ab1565b61350e6020830185612ac9565b61351b6040830184612ab1565b949350505050565b5f6040820190506135365f830185612ab1565b6135436020830184612ab1565b9392505050565b5f8151905061355881612bb7565b92915050565b5f6020828403121561357357613572612968565b5b5f6135808482850161354a565b91505092915050565b5f60608201905061359c5f830186612ac9565b6135a96020830185612ac9565b6135b66040830184612ac9565b949350505050565b5f81905092915050565b50565b5f6135d65f836135be565b91506135e1826135c8565b5f82019050919050565b5f6135f5826135cb565b9150819050919050565b5f6060820190506136125f830186612ab1565b61361f6020830185612ab1565b61362c6040830184612ac9565b949350505050565b5f81519050919050565b5f82825260208201905092915050565b5f61365882613634565b613662818561363e565b9350613672818560208601612b27565b61367b81612b4f565b840191505092915050565b5f6080820190506136995f830187612ab1565b6136a66020830186612ab1565b6136b36040830185612ac9565b81810360608301526136c5818461364e565b905095945050505050565b5f815190506136de8161299b565b92915050565b5f602082840312156136f9576136f8612968565b5b5f613706848285016136d0565b91505092915050565b5f81905092915050565b7f7b226e616d65223a2250617065722050726f746f636f6c222c000000000000005f82015250565b5f61374d60198361370f565b915061375882613719565b601982019050919050565b7f22696d616765223a2200000000000000000000000000000000000000000000005f82015250565b5f61379760098361370f565b91506137a282613763565b600982019050919050565b5f6137b782612b0d565b6137c1818561370f565b93506137d1818560208601612b27565b80840191505092915050565b7f227d0000000000000000000000000000000000000000000000000000000000005f82015250565b5f61381160028361370f565b915061381c826137dd565b600282019050919050565b5f61383182613741565b915061383c8261378b565b915061384882846137ad565b915061385382613805565b915081905092915050565b7f7b226e616d65223a2250617065722050726f746f636f6c227d000000000000005f82015250565b5f61389260198361370f565b915061389d8261385e565b601982019050919050565b5f6138b282613886565b9150819050919050565b7f3c73766720646174612d6e616d653d2250617065722050726f746f636f6c22205f8201527f786d6c6e733d22687474703a2f2f7777772e77332e6f72672f323030302f737660208201527f67223e4e46543c2f7376673e0000000000000000000000000000000000000000604082015250565b5f61393c604c8361370f565b9150613947826138bc565b604c82019050919050565b5f61395c82613930565b9150819050919050565b5f61397182846137ad565b915081905092915050565b5f61398782856137ad565b915061399382846137ad565b91508190509392505050565b7f646174613a6170706c69636174696f6e2f6a736f6e3b6261736536342c0000005f82015250565b5f6139d3601d8361370f565b91506139de8261399f565b601d82019050919050565b5f6139f3826139c7565b91506139ff82846137ad565b915081905092915050565b5f613a1482612ac0565b9150613a1f83612ac0565b9250828202613a2d81612ac0565b91508282048414831517613a4457613a4361347a565b5b5092915050565b5f613a5582612ac0565b9150613a6083612ac0565b9250828201905080821115613a7857613a7761347a565b5b92915050565b7f4e487b71000000000000000000000000000000000000000000000000000000005f52601260045260245ffd5b5f613ab582612ac0565b9150613ac083612ac0565b925082613ad057613acf613a7e565b5b82820490509291505056fe4142434445464748494a4b4c4d4e4f505152535455565758595a6162636465666768696a6b6c6d6e6f707172737475767778797a303132333435363738392b2fa2646970667358221220f4ba029bf2ff7e1d4f10dde6c65c3cae0976f7a2c8a8e0f46509b50695c5430864736f6c63430008180033","linkReferences":{}},"methodIdentifiers":{"approve(address,uint256)":"095ea7b3","balanceOf(address)":"70a08231","checkIsPreset((address,uint256,uint256))":"9b03e8a1","contractURI()":"e8a3d485","deposit(address,uint256,uint256)":"0efe6a8b","deposits(uint256)":"b02c43d0","getApproved(uint256)":"081812fc","getPreset(address,uint256,uint256)":"366524e0","getPresetId(address,uint256,uint256)":"0a93172c","isApprovedForAll(address,address)":"e985e9c5","isWithdrawn(uint256)":"c30184b7","name()":"06fdde03","nextTokenId()":"75794a3c","oracleAdapter()":"3d9f3163","owner()":"8da5cb5b","ownerOf(uint256)":"6352211e","presets(bytes32)":"02b9e3ed","removePresets(bytes32[])":"438b2a0d","renounceOwnership()":"715018a6","safeTransferFrom(address,address,uint256)":"42842e0e","safeTransferFrom(address,address,uint256,bytes)":"b88d4fde","setApprovalForAll(address,bool)":"a22cb465","setOracleAdapter(address)":"edb6d075","setPresets((address,uint256,uint256)[])":"0ef174f2","supportsInterface(bytes4)":"01ffc9a7","symbol()":"95d89b41","tokenURI(uint256)":"c87b56dd","transferFrom(address,address,uint256)":"23b872dd","transferOwnership(address)":"f2fde38b","withdraw(uint256)":"2e1a7d4d"},"id":46}