{"abi":[{"type":"constructor","inputs":[],"stateMutability":"nonpayable"},{"type":"function","name":"approve","inputs":[{"name":"to","type":"address","internalType":"address"},{"name":"tokenId","type":"uint256","internalType":"uint256"}],"outputs":[],"stateMutability":"nonpayable"},{"type":"function","name":"balanceOf","inputs":[{"name":"owner","type":"address","internalType":"address"}],"outputs":[{"name":"","type":"uint256","internalType":"uint256"}],"stateMutability":"view"},{"type":"function","name":"deposit","inputs":[{"name":"token","type":"address","internalType":"address"},{"name":"amount","type":"uint256","internalType":"uint256"},{"name":"priceTarget","type":"uint256","internalType":"uint256"}],"outputs":[],"stateMutability":"payable"},{"type":"function","name":"deposits","inputs":[{"name":"","type":"uint256","internalType":"uint256"}],"outputs":[{"name":"token","type":"address","internalType":"address"},{"name":"amount","type":"uint256","internalType":"uint256"},{"name":"priceTarget","type":"uint256","internalType":"uint256"},{"name":"timestamp","type":"uint256","internalType":"uint256"},{"name":"isPreset","type":"bool","internalType":"bool"}],"stateMutability":"view"},{"type":"function","name":"getApproved","inputs":[{"name":"tokenId","type":"uint256","internalType":"uint256"}],"outputs":[{"name":"","type":"address","internalType":"address"}],"stateMutability":"view"},{"type":"function","name":"isApprovedForAll","inputs":[{"name":"owner","type":"address","internalType":"address"},{"name":"operator","type":"address","internalType":"address"}],"outputs":[{"name":"","type":"bool","internalType":"bool"}],"stateMutability":"view"},{"type":"function","name":"isPreset","inputs":[{"name":"token","type":"address","internalType":"address"},{"name":"amount","type":"uint256","internalType":"uint256"},{"name":"priceTarget","type":"uint256","internalType":"uint256"}],"outputs":[{"name":"","type":"bool","internalType":"bool"}],"stateMutability":"view"},{"type":"function","name":"isWithdrawn","inputs":[{"name":"tokenId","type":"uint256","internalType":"uint256"}],"outputs":[{"name":"","type":"bool","internalType":"bool"}],"stateMutability":"view"},{"type":"function","name":"name","inputs":[],"outputs":[{"name":"","type":"string","internalType":"string"}],"stateMutability":"view"},{"type":"function","name":"nextTokenId","inputs":[],"outputs":[{"name":"","type":"uint256","internalType":"uint256"}],"stateMutability":"view"},{"type":"function","name":"oracleAdapter","inputs":[],"outputs":[{"name":"","type":"address","internalType":"contract OracleAdapter"}],"stateMutability":"view"},{"type":"function","name":"owner","inputs":[],"outputs":[{"name":"","type":"address","internalType":"address"}],"stateMutability":"view"},{"type":"function","name":"ownerOf","inputs":[{"name":"tokenId","type":"uint256","internalType":"uint256"}],"outputs":[{"name":"","type":"address","internalType":"address"}],"stateMutability":"view"},{"type":"function","name":"renounceOwnership","inputs":[],"outputs":[],"stateMutability":"nonpayable"},{"type":"function","name":"safeTransferFrom","inputs":[{"name":"from","type":"address","internalType":"address"},{"name":"to","type":"address","internalType":"address"},{"name":"tokenId","type":"uint256","internalType":"uint256"}],"outputs":[],"stateMutability":"nonpayable"},{"type":"function","name":"safeTransferFrom","inputs":[{"name":"from","type":"address","internalType":"address"},{"name":"to","type":"address","internalType":"address"},{"name":"tokenId","type":"uint256","internalType":"uint256"},{"name":"data","type":"bytes","internalType":"bytes"}],"outputs":[],"stateMutability":"nonpayable"},{"type":"function","name":"setApprovalForAll","inputs":[{"name":"operator","type":"address","internalType":"address"},{"name":"approved","type":"bool","internalType":"bool"}],"outputs":[],"stateMutability":"nonpayable"},{"type":"function","name":"setOracleAdapter","inputs":[{"name":"_oracleAdapter","type":"address","internalType":"address"}],"outputs":[],"stateMutability":"nonpayable"},{"type":"function","name":"supportsInterface","inputs":[{"name":"interfaceId","type":"bytes4","internalType":"bytes4"}],"outputs":[{"name":"","type":"bool","internalType":"bool"}],"stateMutability":"view"},{"type":"function","name":"symbol","inputs":[],"outputs":[{"name":"","type":"string","internalType":"string"}],"stateMutability":"view"},{"type":"function","name":"tokenURI","inputs":[{"name":"tokenId","type":"uint256","internalType":"uint256"}],"outputs":[{"name":"","type":"string","internalType":"string"}],"stateMutability":"view"},{"type":"function","name":"transferFrom","inputs":[{"name":"from","type":"address","internalType":"address"},{"name":"to","type":"address","internalType":"address"},{"name":"tokenId","type":"uint256","internalType":"uint256"}],"outputs":[],"stateMutability":"nonpayable"},{"type":"function","name":"transferOwnership","inputs":[{"name":"newOwner","type":"address","internalType":"address"}],"outputs":[],"stateMutability":"nonpayable"},{"type":"function","name":"withdraw","inputs":[{"name":"tokenId","type":"uint256","internalType":"uint256"}],"outputs":[],"stateMutability":"nonpayable"},{"type":"event","name":"Approval","inputs":[{"name":"owner","type":"address","indexed":true,"internalType":"address"},{"name":"approved","type":"address","indexed":true,"internalType":"address"},{"name":"tokenId","type":"uint256","indexed":true,"internalType":"uint256"}],"anonymous":false},{"type":"event","name":"ApprovalForAll","inputs":[{"name":"owner","type":"address","indexed":true,"internalType":"address"},{"name":"operator","type":"address","indexed":true,"internalType":"address"},{"name":"approved","type":"bool","indexed":false,"internalType":"bool"}],"anonymous":false},{"type":"event","name":"Deposited","inputs":[{"name":"tokenId","type":"uint256","indexed":true,"internalType":"uint256"},{"name":"token","type":"address","indexed":true,"internalType":"address"},{"name":"amount","type":"uint256","indexed":false,"internalType":"uint256"},{"name":"priceTarget","type":"uint256","indexed":false,"internalType":"uint256"}],"anonymous":false},{"type":"event","name":"OracleAdapterSet","inputs":[{"name":"oracleAdapter","type":"address","indexed":true,"internalType":"address"}],"anonymous":false},{"type":"event","name":"OwnershipTransferred","inputs":[{"name":"previousOwner","type":"address","indexed":true,"internalType":"address"},{"name":"newOwner","type":"address","indexed":true,"internalType":"address"}],"anonymous":false},{"type":"event","name":"Transfer","inputs":[{"name":"from","type":"address","indexed":true,"internalType":"address"},{"name":"to","type":"address","indexed":true,"internalType":"address"},{"name":"tokenId","type":"uint256","indexed":true,"internalType":"uint256"}],"anonymous":false},{"type":"error","name":"CallerIsNotNFTOwner","inputs":[{"name":"caller","type":"address","internalType":"address"},{"name":"owner","type":"address","internalType":"address"}]},{"type":"error","name":"ERC721IncorrectOwner","inputs":[{"name":"sender","type":"address","internalType":"address"},{"name":"tokenId","type":"uint256","internalType":"uint256"},{"name":"owner","type":"address","internalType":"address"}]},{"type":"error","name":"ERC721InsufficientApproval","inputs":[{"name":"operator","type":"address","internalType":"address"},{"name":"tokenId","type":"uint256","internalType":"uint256"}]},{"type":"error","name":"ERC721InvalidApprover","inputs":[{"name":"approver","type":"address","internalType":"address"}]},{"type":"error","name":"ERC721InvalidOperator","inputs":[{"name":"operator","type":"address","internalType":"address"}]},{"type":"error","name":"ERC721InvalidOwner","inputs":[{"name":"owner","type":"address","internalType":"address"}]},{"type":"error","name":"ERC721InvalidReceiver","inputs":[{"name":"receiver","type":"address","internalType":"address"}]},{"type":"error","name":"ERC721InvalidSender","inputs":[{"name":"sender","type":"address","internalType":"address"}]},{"type":"error","name":"ERC721NonexistentToken","inputs":[{"name":"tokenId","type":"uint256","internalType":"uint256"}]},{"type":"error","name":"EtherAmountMustBeZeroForTokenDeposit","inputs":[{"name":"token","type":"address","internalType":"address"},{"name":"etherAmount","type":"uint256","internalType":"uint256"}]},{"type":"error","name":"EtherTransferFailed","inputs":[{"name":"tokenId","type":"uint256","internalType":"uint256"}]},{"type":"error","name":"OwnableInvalidOwner","inputs":[{"name":"owner","type":"address","internalType":"address"}]},{"type":"error","name":"OwnableUnauthorizedAccount","inputs":[{"name":"account","type":"address","internalType":"address"}]},{"type":"error","name":"SafeERC20FailedOperation","inputs":[{"name":"token","type":"address","internalType":"address"}]},{"type":"error","name":"TokenAlreadyWithdrawn","inputs":[{"name":"tokenId","type":"uint256","internalType":"uint256"}]},{"type":"error","name":"TokenAmountCannotBeZero","inputs":[{"name":"token","type":"address","internalType":"address"}]}],"bytecode":{"object":"0x60806040526001600b55348015610014575f5ffd5b50336040518060400160405280600e81526020016d14185c195c88141c9bdd1bd8dbdb60921b81525060405180604001604052806002815260200161050560f41b815250815f9081610066919061019b565b506001610073828261019b565b5050506001600160a01b0381166100a357604051631e4fbdf760e01b81525f600482015260240160405180910390fd5b6100ac816100b2565b50610255565b600680546001600160a01b038381166001600160a01b0319831681179093556040519116919082907f8be0079c531659141344cd1fd0a4f28419497f9722a3daafe3b4186f6b6457e0905f90a35050565b634e487b7160e01b5f52604160045260245ffd5b600181811c9082168061012b57607f821691505b60208210810361014957634e487b7160e01b5f52602260045260245ffd5b50919050565b601f82111561019657805f5260205f20601f840160051c810160208510156101745750805b601f840160051c820191505b81811015610193575f8155600101610180565b50505b505050565b81516001600160401b038111156101b4576101b4610103565b6101c8816101c28454610117565b8461014f565b6020601f8211600181146101fa575f83156101e35750848201515b5f19600385901b1c1916600184901b178455610193565b5f84815260208120601f198516915b828110156102295787850151825560209485019460019092019101610209565b508482101561024657868401515f19600387901b60f8161c191681555b50505050600190811b01905550565b611704806102625f395ff3fe608060405260043610610147575f3560e01c806375794a3c116100b3578063b88d4fde1161006d578063b88d4fde14610414578063c30184b714610433578063c87b56dd14610461578063e985e9c514610480578063edb6d0751461049f578063f2fde38b146104be575f5ffd5b806375794a3c146102e757806388e03856146102fc5780638da5cb5b1461033b57806395d89b4114610358578063a22cb4651461036c578063b02c43d01461038b575f5ffd5b80632e1a7d4d116101045780632e1a7d4d1461022a5780633d9f31631461024957806342842e0e146102685780636352211e1461028757806370a08231146102a6578063715018a6146102d3575f5ffd5b806301ffc9a71461014b57806306fdde031461017f578063081812fc146101a0578063095ea7b3146101d75780630efe6a8b146101f857806323b872dd1461020b575b5f5ffd5b348015610156575f5ffd5b5061016a61016536600461135d565b6104dd565b60405190151581526020015b60405180910390f35b34801561018a575f5ffd5b5061019361052e565b60405161017691906113a6565b3480156101ab575f5ffd5b506101bf6101ba3660046113b8565b6105bd565b6040516001600160a01b039091168152602001610176565b3480156101e2575f5ffd5b506101f66101f13660046113ea565b6105e4565b005b6101f6610206366004611412565b6105f3565b348015610216575f5ffd5b506101f6610225366004611442565b61075b565b348015610235575f5ffd5b506101f66102443660046113b8565b6107e4565b348015610254575f5ffd5b50600a546101bf906001600160a01b031681565b348015610273575f5ffd5b506101f6610282366004611442565b61095b565b348015610292575f5ffd5b506101bf6102a13660046113b8565b610975565b3480156102b1575f5ffd5b506102c56102c036600461147c565b61097f565b604051908152602001610176565b3480156102de575f5ffd5b506101f66109c4565b3480156102f2575f5ffd5b506102c5600b5481565b348015610307575f5ffd5b5061016a610316366004611412565b600760209081525f938452604080852082529284528284209052825290205460ff1681565b348015610346575f5ffd5b506006546001600160a01b03166101bf565b348015610363575f5ffd5b506101936109d7565b348015610377575f5ffd5b506101f6610386366004611495565b6109e6565b348015610396575f5ffd5b506103e06103a53660046113b8565b60096020525f9081526040902080546001820154600283015460038401546004909401546001600160a01b0390931693919290919060ff1685565b604080516001600160a01b03909616865260208601949094529284019190915260608301521515608082015260a001610176565b34801561041f575f5ffd5b506101f661042e3660046114e2565b6109f1565b34801561043e575f5ffd5b5061016a61044d3660046113b8565b60086020525f908152604090205460ff1681565b34801561046c575f5ffd5b5061019361047b3660046113b8565b610a09565b34801561048b575f5ffd5b5061016a61049a3660046115bf565b610a7a565b3480156104aa575f5ffd5b506101f66104b936600461147c565b610aa7565b3480156104c9575f5ffd5b506101f66104d836600461147c565b610af8565b5f6001600160e01b031982166380ac58cd60e01b148061050d57506001600160e01b03198216635b5e139f60e01b145b8061052857506301ffc9a760e01b6001600160e01b03198316145b92915050565b60605f805461053c906115f0565b80601f0160208091040260200160405190810160405280929190818152602001828054610568906115f0565b80156105b35780601f1061058a576101008083540402835291602001916105b3565b820191905f5260205f20905b81548152906001019060200180831161059657829003601f168201915b5050505050905090565b5f6105c782610b35565b505f828152600460205260409020546001600160a01b0316610528565b6105ef828233610b6d565b5050565b6001600160a01b0383165f818152600760209081526040808320868452825280832085845290915290205460ff169061062a573492505b825f0361065a5760405163c512cdd560e01b81526001600160a01b03851660048201526024015b60405180910390fd5b6001600160a01b038416156106ae5734156106995760405163ed7d3f5d60e01b81526001600160a01b0385166004820152346024820152604401610651565b6106ae6001600160a01b038516333086610b7a565b6040805160a0810182526001600160a01b0386811682526020808301878152838501878152426060860190815287151560808701908152600b80545f908152600990965297909420955186546001600160a01b03191695169490941785559051600185015551600284015590516003830155516004909101805460ff191691151591909117905554610741903390610be1565b600b8054905f61075083611628565b919050555050505050565b6001600160a01b03821661078457604051633250574960e11b81525f6004820152602401610651565b5f610790838333610c42565b9050836001600160a01b0316816001600160a01b0316146107de576040516364283d7b60e01b81526001600160a01b0380861660048301526024820184905282166044820152606401610651565b50505050565b5f8181526008602052604090205460ff161561081657604051631400fb6160e11b815260048101829052602401610651565b5f61082082610b35565b9050336001600160a01b0382161461085c57604051633fad003d60e11b81523360048201526001600160a01b0382166024820152604401610651565b5f828152600860209081526040808320805460ff191660019081179091556009835292819020815160a08101835281546001600160a01b03168082529482015493810193909352600281015491830191909152600381015460608301526004015460ff1615156080820152906109385760208101516040515f9133918381818185875af1925050503d805f811461090e576040519150601f19603f3d011682016040523d82523d5f602084013e610913565b606091505b50509050806107de576040516301489ce160e31b815260048101859052602401610651565b60208101518151610956916001600160a01b03909116903390610d34565b505050565b61095683838360405180602001604052805f8152506109f1565b5f61052882610b35565b5f6001600160a01b0382166109a9576040516322718ad960e21b81525f6004820152602401610651565b506001600160a01b03165f9081526003602052604090205490565b6109cc610d65565b6109d55f610d92565b565b60606001805461053c906115f0565b6105ef338383610de3565b6109fc84848461075b565b6107de3385858585610e81565b6060610a1482610b35565b505f610a2a60408051602081019091525f815290565b90505f815111610a485760405180602001604052805f815250610a73565b80610a5284610fa9565b604051602001610a63929190611663565b6040516020818303038152906040525b9392505050565b6001600160a01b039182165f90815260056020908152604080832093909416825291909152205460ff1690565b610aaf610d65565b600a80546001600160a01b0319166001600160a01b0383169081179091556040517f0216fd2d147b005795495489f9a8546ecb901b7c2837fc3d486b06ff66729bb7905f90a250565b610b00610d65565b6001600160a01b038116610b2957604051631e4fbdf760e01b81525f6004820152602401610651565b610b3281610d92565b50565b5f818152600260205260408120546001600160a01b03168061052857604051637e27328960e01b815260048101849052602401610651565b6109568383836001611039565b6040516001600160a01b0384811660248301528381166044830152606482018390526107de9186918216906323b872dd906084015b604051602081830303815290604052915060e01b6020820180516001600160e01b03838183161783525050505061113d565b6001600160a01b038216610c0a57604051633250574960e11b81525f6004820152602401610651565b5f610c1683835f610c42565b90506001600160a01b03811615610956576040516339e3563760e11b81525f6004820152602401610651565b5f828152600260205260408120546001600160a01b0390811690831615610c6e57610c6e8184866111a9565b6001600160a01b03811615610ca857610c895f855f5f611039565b6001600160a01b0381165f90815260036020526040902080545f190190555b6001600160a01b03851615610cd6576001600160a01b0385165f908152600360205260409020805460010190555b5f8481526002602052604080822080546001600160a01b0319166001600160a01b0389811691821790925591518793918516917fddf252ad1be2c89b69c2b068fc378daa952ba7f163c4a11628f55a4df523b3ef91a4949350505050565b6040516001600160a01b0383811660248301526044820183905261095691859182169063a9059cbb90606401610baf565b6006546001600160a01b031633146109d55760405163118cdaa760e01b8152336004820152602401610651565b600680546001600160a01b038381166001600160a01b0319831681179093556040519116919082907f8be0079c531659141344cd1fd0a4f28419497f9722a3daafe3b4186f6b6457e0905f90a35050565b6001600160a01b038216610e1557604051630b61174360e31b81526001600160a01b0383166004820152602401610651565b6001600160a01b038381165f81815260056020908152604080832094871680845294825291829020805460ff191686151590811790915591519182527f17307eab39ab6107e8899845ad3d59bd9653f200f220920489ca2b5937696c31910160405180910390a3505050565b6001600160a01b0383163b15610fa257604051630a85bd0160e11b81526001600160a01b0384169063150b7a0290610ec3908890889087908790600401611677565b6020604051808303815f875af1925050508015610efd575060408051601f3d908101601f19168201909252610efa918101906116b3565b60015b610f64573d808015610f2a576040519150601f19603f3d011682016040523d82523d5f602084013e610f2f565b606091505b5080515f03610f5c57604051633250574960e11b81526001600160a01b0385166004820152602401610651565b805181602001fd5b6001600160e01b03198116630a85bd0160e11b14610fa057604051633250574960e11b81526001600160a01b0385166004820152602401610651565b505b5050505050565b60605f610fb58361120d565b60010190505f8167ffffffffffffffff811115610fd457610fd46114ce565b6040519080825280601f01601f191660200182016040528015610ffe576020820181803683370190505b5090508181016020015b5f19016f181899199a1a9b1b9c1cb0b131b232b360811b600a86061a8153600a850494508461100857509392505050565b808061104d57506001600160a01b03821615155b1561110e575f61105c84610b35565b90506001600160a01b038316158015906110885750826001600160a01b0316816001600160a01b031614155b801561109b57506110998184610a7a565b155b156110c45760405163a9fbf51f60e01b81526001600160a01b0384166004820152602401610651565b811561110c5783856001600160a01b0316826001600160a01b03167f8c5be1e5ebec7d5bd14f71427d1e84f3dd0314c0f7b2291e5b200ac8c7c3b92560405160405180910390a45b505b50505f90815260046020526040902080546001600160a01b0319166001600160a01b0392909216919091179055565b5f5f60205f8451602086015f885af18061115c576040513d5f823e3d81fd5b50505f513d91508115611173578060011415611180565b6001600160a01b0384163b155b156107de57604051635274afe760e01b81526001600160a01b0385166004820152602401610651565b6111b48383836112e4565b610956576001600160a01b0383166111e257604051637e27328960e01b815260048101829052602401610651565b60405163177e802f60e01b81526001600160a01b038316600482015260248101829052604401610651565b5f8072184f03e93ff9f4daa797ed6e38ed64bf6a1f0160401b831061124b5772184f03e93ff9f4daa797ed6e38ed64bf6a1f0160401b830492506040015b6d04ee2d6d415b85acef81000000008310611277576d04ee2d6d415b85acef8100000000830492506020015b662386f26fc10000831061129557662386f26fc10000830492506010015b6305f5e10083106112ad576305f5e100830492506008015b61271083106112c157612710830492506004015b606483106112d3576064830492506002015b600a83106105285760010192915050565b5f6001600160a01b038316158015906113405750826001600160a01b0316846001600160a01b0316148061131d575061131d8484610a7a565b8061134057505f828152600460205260409020546001600160a01b038481169116145b949350505050565b6001600160e01b031981168114610b32575f5ffd5b5f6020828403121561136d575f5ffd5b8135610a7381611348565b5f81518084528060208401602086015e5f602082860101526020601f19601f83011685010191505092915050565b602081525f610a736020830184611378565b5f602082840312156113c8575f5ffd5b5035919050565b80356001600160a01b03811681146113e5575f5ffd5b919050565b5f5f604083850312156113fb575f5ffd5b611404836113cf565b946020939093013593505050565b5f5f5f60608486031215611424575f5ffd5b61142d846113cf565b95602085013595506040909401359392505050565b5f5f5f60608486031215611454575f5ffd5b61145d846113cf565b925061146b602085016113cf565b929592945050506040919091013590565b5f6020828403121561148c575f5ffd5b610a73826113cf565b5f5f604083850312156114a6575f5ffd5b6114af836113cf565b9150602083013580151581146114c3575f5ffd5b809150509250929050565b634e487b7160e01b5f52604160045260245ffd5b5f5f5f5f608085870312156114f5575f5ffd5b6114fe856113cf565b935061150c602086016113cf565b925060408501359150606085013567ffffffffffffffff81111561152e575f5ffd5b8501601f8101871361153e575f5ffd5b803567ffffffffffffffff811115611558576115586114ce565b604051601f8201601f19908116603f0116810167ffffffffffffffff81118282101715611587576115876114ce565b60405281815282820160200189101561159e575f5ffd5b816020840160208301375f6020838301015280935050505092959194509250565b5f5f604083850312156115d0575f5ffd5b6115d9836113cf565b91506115e7602084016113cf565b90509250929050565b600181811c9082168061160457607f821691505b60208210810361162257634e487b7160e01b5f52602260045260245ffd5b50919050565b5f6001820161164557634e487b7160e01b5f52601160045260245ffd5b5060010190565b5f81518060208401855e5f93019283525090919050565b5f611340611671838661164c565b8461164c565b6001600160a01b03858116825284166020820152604081018390526080606082018190525f906116a990830184611378565b9695505050505050565b5f602082840312156116c3575f5ffd5b8151610a738161134856fea264697066735822122075a0b7fd586f4e1b40cb842727eff8ad6b73cb2cf5ec58f51b7cc504c4543ce764736f6c634300081c0033","linkReferences":{}},"methodIdentifiers":{"approve(address,uint256)":"095ea7b3","balanceOf(address)":"70a08231","deposit(address,uint256,uint256)":"0efe6a8b","deposits(uint256)":"b02c43d0","getApproved(uint256)":"081812fc","isApprovedForAll(address,address)":"e985e9c5","isPreset(address,uint256,uint256)":"88e03856","isWithdrawn(uint256)":"c30184b7","name()":"06fdde03","nextTokenId()":"75794a3c","oracleAdapter()":"3d9f3163","owner()":"8da5cb5b","ownerOf(uint256)":"6352211e","renounceOwnership()":"715018a6","safeTransferFrom(address,address,uint256)":"42842e0e","safeTransferFrom(address,address,uint256,bytes)":"b88d4fde","setApprovalForAll(address,bool)":"a22cb465","setOracleAdapter(address)":"edb6d075","supportsInterface(bytes4)":"01ffc9a7","symbol()":"95d89b41","tokenURI(uint256)":"c87b56dd","transferFrom(address,address,uint256)":"23b872dd","transferOwnership(address)":"f2fde38b","withdraw(uint256)":"2e1a7d4d"},"id":21}